:040000000BEF00F012
:100008006082FACF40F0FBCF41F0B0ED20F0BCEFBA
:1000180025F0D80E0101066F000E0101076F26EFCB
:1000280007F0250E01011E19D8B40BD0D4C0D9FF92
:10003800D5C0DAFF1EC1DFFF0001D44BD52B26EF58
:1000480007F0000E01011B6F000E1A6F000E010170
:10005800156F000E146F05D0010114850001D64BF1
:10006800D72BD6C0F6FFD7C0F7FFF86A0800F550BF
:10007800300AD8B4F1D7D6C0F6FFD7C0F7FFF86A70
:100088000800F550D2EC26F0D8A042D0000E0101AD
:100098001B6F000E1A6F1AC180F01BC181F0000E91
:1000A8000001836F0A0E826F88EC26F080C01AF177
:1000B80081C01BF1D00E0001DE6FFF0E0001DF6F63
:1000C800D6C0F6FFD7C0F7FFF86A0800F550000160
:1000D800E06FE16B0001DE510001E0270001DF5114
:1000E8000001E1230001E05101011A270001E1515B
:1000F80001011B230001D64BD72BD6C0F6FFD7C072
:10010800F7FFF86A0800F550D2EC26F0D8B0C3D74C
:10011800D6C0F6FFD7C0F7FFF86A0800F5502E0AD8
:10012800D8A43BD00101158D0001D64BD72B000E6A
:1001380001011D6F000E1C6F24D01CC180F01DC171
:1001480081F0000E0001836F0A0E826F88EC26F0A2
:10015800D6C0F6FFD7C0F7FFF86A0800F5500001CF
:100168008027000E00018123D00E000180250101A7
:100178001C6FFF0E0001812101011D6F0001D64B8C
:10018800D72BD6C0F6FFD7C0F7FFF86A0800F5509E
:10019800D2EC26F0D8A0B9D0D0D7000E01011D6F3F
:1001A800000E1C6F01011589B0D001011585CCD056
:1001B80006C1D9FF07C1DAFFDECF04F1DDCF05F1B3
:1001C800020E01010627000E072301010451010157
:1001D8000511D8A406D0AE0E0101046FFF0E01016F
:1001E800056F000E0101096F000E086F03D00101B1
:1001F800084B092B01010851010104250001DE6F9C
:1002080001010951010105210001DF6FDEC0F6FF80
:10021800DFC0F7FF000EF86E0F0EF76403D008007A
:10022800F55005D0F6CFE1FFF7CFE2FFE750000920
:10023800D8A4DDD701011C5101011D11D8B40ED07D
:100248000101085101011C5D0101095101011D59FC
:10025800D8B004D01CC108F11DC109F101011A511F
:100268000101085D01011B5101010959D8B009D0EC
:100278000101085101011A5F0101095101011B5BCC
:100288000FD0000E01011B6F000E1A6F09D0D4C0E9
:10029800D9FFD5C0DAFF200EDF6E0001D44BD52B75
:1002A80001011A07D8A01B0701011A29F0E1010171
:1002B8001B29D8B41DD0EBD704C1F6FF05C1F7FF41
:1002C800000EF86ED4C0D9FFD5C0DAFF0F0EF76460
:1002D80003D00800F55005D0F6CFE1FFF7CFE2FFD5
:1002E800E750DF6E0101044B052B0001D44BD52BE1
:1002F80001010807D8A0090701010829DDE101016A
:100308000929D8B426EF07F0D7D7D6C0F6FFD7C04B
:10031800F7FF0001D64BD72BF86A0800F5CF1EF17E
:1003280001011E51000AD8B436EF07F0640AD8B4A8
:100338000BD0020AD8B439D70F0AD8B405D01A0A94
:10034800D8B436D726EF07F0070E01011515D8B433
:10035800DBD3010115A905D0000E01011D6F060EA2
:100368001C6F06C1D9FF07C1DAFFDECF16F1DECF59
:1003780017F1DECF18F1DECF19F1040E01010627BF
:10038800000E0723010119AF15D016C180F017C15F
:1003980081F018C182F019C183F06CEC26F080C09E
:1003A80016F181C017F182C018F183C019F1030E4C
:1003B80001011413000E0101136F000E126F0101E9
:1003C8001651010117110101181101011911D8B4B1
:1003D8008ED0010118351935820F0101126F010104
:1003E800136BFF0E132301011207D8A0130712C1C4
:1003F80080F013C181F0000E0001836F030E826F3D
:1004080088EC26F080C012F181C013F112C186F089
:1004180013C187F0000E0001896F0A0E886F11EC76
:1004280021F086C012F187C013F1010113AF04D087
:1004380001011207D8A013070101125100083DEC71
:1004480007F0A7C00AF1A8C00BF1A9C00CF1AAC017
:100458000DF10AC18EF00BC18FF00CC190F00DC1E7
:1004680091F016C192F017C193F018C194F019C118
:1004780095F0A2EC0EF08EC00AF18FC00BF190C07F
:100488000CF191C00DF10AC1C8F00BC1C9F00CC143
:10049800CAF00DC1CBF0000E0001CC6F000ECD6F7D
:1004A800800ECE6F3F0ECF6FA6EC1AF00001D8B0C9
:1004B80005D001011207D8A0130719D00AC1C8F046
:1004C8000BC1C9F00CC1CAF00DC1CBF0000E000180
:1004D800CC6F000ECD6F200ECE6F410ECF6FA6EC05
:1004E8001AF00001D8A003D00101124B132B01010F
:1004F8001DBF08D001011D5123E10D0E01011C5D36
:10050800D8B01ED016C1B4F017C1B5F018C1B6F0F6
:1005180019C1B7F001011C511BEC16F0A7C0B8F0C7
:10052800A8C0B9F0A9C0BAF0AAC0BBF04EEC0CF054
:10053800B4C016F1B5C017F1B6C018F1B7C019F1BB
:10054800010113BF08D0010113512EE10A0E010168
:10055800125DD8B029D0010116510101171101010E
:10056800181101011911D8B46DD016C1C8F017C1FE
:10057800C9F018C1CAF019C1CBF05AEC1FF000013C
:10058800C8510001C9110001CA110001CB11D8A43A
:1005980059D0010113BF56D00101135105E1020ED4
:1005A8000101125DD8A04ED00AC1C8F00BC1C9F034
:1005B8000CC1CAF00DC1CBF05F0E0001CC6F700EFC
:1005C800CD6F890ECE6F400ECF6FA6EC1AF00001EA
:1005D800D8B003D00101F70E02D00101F80E12279E
:1005E800FF0E1323010112513DEC07F0A7C00AF1D9
:1005F800A8C00BF1A9C00CF1AAC00DF116C180F07A
:1006080017C181F018C182F019C183F00AC184F0C2
:100618000BC185F00CC186F00DC187F06EEC1BF0A4
:1006280080C00EF181C00FF182C010F183C011F1BA
:10063800000E0101166F000E176F000E186F000EE6
:10064800196F3CD016C1C8F017C1C9F018C1CAF05B
:1006580019C1CBF05AEC1FF0C8C00EF1C9C00FF198
:10066800CAC010F1CBC011F116C1C8F017C1C9F04A
:1006780018C1CAF019C1CBF00EC186F00FC187F0BE
:1006880010C188F011C189F0000EF0EC18F086C096
:10069800CCF087C0CDF088C0CEF089C0CFF009EC8F
:1006A80026F0C8C016F1C9C017F1CAC018F1CBC0EE
:1006B80019F1000E0101136F000E126F010E0101F6
:1006C8001E6F0A0E01011E19D8B421D001011E5156
:1006D800040D5B0EF324F66EFF0EF420F76EF86A35
:1006E800000EF8220900F55001010E5D0900F550D1
:1006F80001010F590900F550010110590900F55081
:1007080001011159D8A003D001011E2BDAD71EC14F
:10071800DEF00001DF6BDEBFDF0701011C510001C5
:10072800DE2701011D510001DF23010112510001E3
:10073800DE27010113510001DF230001DE51010111
:100748001A5F0001DF5101011B5B01011C5101010E
:100758001D11D8B404D001011A07D8A01B07030E35
:10076800010114150001DE6F000E010115150001CD
:10077800DF6F0001DE510001DF11D8B404D00101A0
:100788001A07D8A01B07010114A53FD0030E0101C9
:1007980014150001DE6F000E010115150001DF6F51
:1007A8000001DE510001DF11D8B417D0D4C0D9FF41
:1007B800D5C0DAFF2D0EDF6E0001D44BD52B0DD03E
:1007C800D4C0D9FFD5C0DAFF300EDF6E0001D44B9C
:1007D800D52B01011A07D8A01B0701011BBF87D021
:1007E80001011B51EDE101011A05D8A080D0E8D71D
:1007F800D4C0D9FFD5C0DAFF200EDF6E0001D44B7C
:10080800D52B01011A07D8A01B0701011BBF07D070
:1008180001011B51EDE101011A05D8B0E9D7030E1A
:10082800010114150001DE6F000E0101151500010C
:10083800DF6F0001DE510001DF11D8B458D0D4C0F9
:10084800D9FFD5C0DAFF2D0E50D00001D44BD52BDF
:100858004ED00EC180F00FC181F010C182F011C1DD
:1008680083F001011E51040D5B0EF324F66EFF0E9A
:10087800F420F76EF86A000EF8220900F5CF84F02C
:100888000900F5CF85F00900F5CF86F00A00F5CF0D
:1008980087F070EC21F080C00AF181C00BF182C0B2
:1008A8000CF183C00DF10AC18DF00BC18EF00CC1A3
:1008B8008FF00DC190F00A0E0001916F000E926F3B
:1008C800000E936F000E946FD5EC22F08DC00AF1E4
:1008D8008EC00BF18FC00CF190C00DF101010A51CF
:1008E800300FD4C0D9FFD5C0DAFFDF6EAED7010113
:1008F8001E0701011E29D8B40ED0ABD7D4C0D9FF2A
:10090800D5C0DAFF300EDF6E0001D44BD52B0101C4
:100918001207D8A01307010113BF07D00101135113
:10092800EDE101011205D8B0E9D701011DBF0CD0D6
:1009380001011D5105E1090E01011C5DD8A004D07B
:10094800080E01011E6F02D01CC11EF101011E51CB
:1009580001011C5F000E01011EBFFF0E01011D5B9E
:1009680001011E510101D8B409D0D4C0D9FFD5C0A6
:10097800DAFF2E0EDF6E0001D44BD52B01011E517C
:100988003DEC07F0A7C000F1A8C001F1A9C002F131
:10099800AAC003F116C192F017C193F018C194F0E0
:1009A80019C195F000C18EF001C18FF002C190F01D
:1009B80003C191F0A2EC0EF08EC0C8F08FC0C9F050
:1009C80090C0CAF091C0CBF05AEC1FF0C8C00EF12D
:1009D800C9C00FF1CAC010F1CBC011F17AD00EC155
:1009E80080F00FC181F010C182F011C183F00101C4
:1009F8001E51040D5B0EF324F66EFF0EF420F76E05
:100A0800F86A000EF8220900F5CF84F00900F5CF46
:100A180085F00900F5CF86F00A00F5CF87F070EC75
:100A280021F080C00AF181C00BF182C00CF183C0B3
:100A38000DF10AC18DF00BC18EF00CC18FF00DC104
:100A480090F00A0E0001916F000E926F000E936FE6
:100A5800000E946FD5EC22F08DC00AF18EC00BF118
:100A68008FC00CF190C00DF101010A51300FD4C0B4
:100A7800D9FFD5C0DAFFDF6E0001D44BD52B0EC1EC
:100A88008DF00FC18EF010C18FF011C190F00101EF
:100A98001E51040D5B0EF324F66EFF0EF420F76E64
:100AA800F86A000EF8220900F5CF91F00900F5CF99
:100AB80092F00900F5CF93F00A00F5CF94F0D5EC49
:100AC80022F08DC00EF18EC00FF18FC010F190C0D2
:100AD80011F101011E0701011E29D8B40ED07FD7DC
:100AE800D4C0D9FFD5C0DAFF300EDF6E0001D44B79
:100AF800D52B01011C07D8A01D0701011C510101BC
:100B08001D11D8B49FD1ECD706C1D9FF07C1DAFFB0
:100B1800DECF0EF1DDCF0FF10101000E0FBFFF0E8A
:100B2800106F116F020E01010627000E0723010145
:100B380011AF0CD0030E010114130101111F101F76
:100B48000F1F0E6D000E0F231023112301011C51DE
:100B580001011D11D8A40DD001010E5101010F1181
:100B68000101101101011111D8A403D001011C4B7E
:100B78001D2B010E01011E6F0A0E01011E19D8B4AA
:100B880021D001011E51040D5B0EF324F66EFF0EF9
:100B9800F420F76EF86A000EF8220900F5500101FA
:100BA8000E5D0900F55001010F590900F5500101CA
:100BB80010590900F55001011159D8A003D00101BD
:100BC8001E2BDAD7800E01011EBF7F0E0001DE6FDB
:100BD80001011C5101011E5D01011D51800A000126
:100BE800DE59D8B003D01CC11EF118D001011D5127
:100BF800800A0001DE6F01011E5101011C5D800E9B
:100C080001011EBF7F0E0001DE59D8B007D00101D7
:100C18001E5101011C6F1D6B1CBF1D0701011A51DC
:100C280001011B11D8B414D0030E010114150001E1
:100C3800DE6F000E010115150001DF6F0001DE51A6
:100C48000001DF11D8B404D001011A07D8A01B078E
:100C5800010115AD1ED001011A5101011C5D0101F0
:100C68001D51800A0001DE6F01011B51800A00013D
:100C7800DE59D8B009D001011C5101011A5F0101E8
:100C88001D5101011B5B05D0000E01011B6F000EF9
:100C98001A6F800E01011EBF7F0E0001DE6F010179
:100CA8001A5101011E5D01011B51800A0001DE5924
:100CB800D8B00BD001011E5101011A5F000E0101CD
:100CC8001EBFFF0E01011B5B05D0000E01011B6F4B
:100CD800000E1A6F010114A52DD0030E0101141581
:100CE8000001DE6F000E010115150001DF6F000124
:100CF800DE510001DF11D8B409D0D4C0D9FFD5C066
:100D0800DAFF2D0EDF6E0001D44BD52B01011A51ED
:100D180001011B11D8B48BD0D4C0D9FFD5C0DAFFDC
:100D2800300EDF6E0001D44BD52B01011A07D8A075
:100D38001B07ECD701011A5101011B11D8B413D0BC
:100D4800D4C0D9FFD5C0DAFF200EDF6E0001D44B26
:100D5800D52B01011A07D8A01B0701011A5101015F
:100D68001B11D8A4EDD7030E010114150001DE6F85
:100D7800000E010115150001DF6F0001DE510001B1
:100D8800DF11D8B454D0D4C0D9FFD5C0DAFF2D0EA6
:100D9800DF6E4AD01CC1DEF01DC1DFF00001D89023
:100DA800DE37DF370001D890DE37DF375B0E000112
:100DB800DE25F66EFF0EDF21F76EF86A000EF822C8
:100DC8000900F5CF84F00900F5CF85F00900F5CFCB
:100DD80086F00A00F5CF87F00EC180F00FC181F0D0
:100DE80010C182F011C183F070EC21F080C08DF049
:100DF80081C08EF082C08FF083C090F00A0E00018F
:100E0800916F000E926F000E936F000E946FD5ECE9
:100E180022F000018D51300F01011E6FD4C0D9FF9F
:100E2800D5C0DAFF1EC1DFFF0001D44BD52B01016D
:100E38001C07D8A01D0701011C29ACE101011D29CF
:100E4800D8A4A8D7D6C0F6FFD7C0F7FF0001D64B65
:100E5800D72BF86A0800F5CF1EF101011E51D8A45E
:100E680015EF00F0D4C0D9FFD5C0DAFF000EDF6E51
:100E780012000001AF6F0001AFAF45D10001AF6DA7
:100E88000001AF51800A120FD8A0BBD0000E00019C
:100E9800896F0A0E886F000E0001836F640E826FDF
:100EA8000001AF510001806F816B80BF810784EC26
:100EB80022F080C086F081C087F011EC21F000019B
:100EC800D890863787370001D89086378737240E21
:100ED80000018627000E00018723F30E00018625F6
:100EE800F66EFE0E00018721F76EF86A000EF822F2
:100EF8000900F5CF92F00900F5CF93F00900F5CF7E
:100F080094F00A00F5CF95F0000E0001896F640E89
:100F1800886F0001AF510001866F876B86BF870716
:100F280011EC21F00001D890863787370001D8905E
:100F380086378737480E00018627000E0001872371
:100F4800F30E00018625F66EFE0E00018721F76E6E
:100F5800F86A000EF8220900F5CF8EF00900F5CFE7
:100F68008FF00900F5CF90F00A00F5CF91F0A2ECD0
:100F78000EF08EC0ABF08FC0ACF090C0ADF091C059
:100F8800AEF0ABC08EF0ACC08FF0ADC090F0AEC08C
:100F980091F0000E0001836F0A0E826F0001AF51BD
:100FA8000001806F816B80BF810784EC22F0000113
:100FB800D890803781370001D89080378137F30E79
:100FC80000018025F66EFE0E00018121F76EF86A99
:100FD800000EF8220900F5CF92F00900F5CF93F042
:100FE8000900F5CF94F00A00F5CF95F0A2EC0EF0C9
:100FF8008EC0A7F08FC0A8F090C0A9F091C0AAF049
:1010080012000001AF51800A750FD8A063D0000EFE
:101018000001896F0A0E886F0001AF510001866FC9
:10102800876B86BF870711EC21F00001D8908637BF
:1010380087370001D89086378737240E0001862726
:10104800000E00018723F30E00018625F66EFE0EC2
:1010580000018721F76EF86A000EF8220900F5CF23
:101068008EF00900F5CF8FF00900F5CF90F00A0057
:10107800F5CF91F0000E0001836F0A0E826F000118
:10108800AF510001806F816B80BF810784EC22F033
:101098000001D890803781370001D8908037813798
:1010A800F30E00018025F66EFE0E00018121F76E19
:1010B800F86A000EF8220900F5CF92F00900F5CF82
:1010C80093F00900F5CF94F00A00F5CF95F0A2EC63
:1010D8000EF08ED70001AF51040DF30EF324F66E17
:1010E800FE0EF420F76EF86A000EF8220900F5CF1C
:1010F800A7F00900F5CFA8F00900F5CFA9F00A007C
:10110800F5CFAAF012000001AF51800A120FD8A043
:10111800BBD0000E0001896F0A0E886F000E000117
:10112800836F640E826F0001AF510001806F816B85
:1011380080BF810784EC22F080C086F081C087F0F0
:1011480011EC21F00001D890863787370001D8903C
:1011580086378737240E00018627000E0001872373
:10116800270E00018625F66EFF0E00018721F76E17
:10117800F86A000EF8220900F5CF92F00900F5CFC1
:1011880093F00900F5CF94F00A00F5CF95F0000E22
:101198000001896F640E886F0001AF510001866FEE
:1011A800876B86BF870711EC21F00001D89086373E
:1011B80087370001D89086378737480E0001862781
:1011C800000E00018723270E00018625F66EFF0E0C
:1011D80000018721F76EF86A000EF8220900F5CFA2
:1011E8008EF00900F5CF8FF00900F5CF90F00A00D6
:1011F800F5CF91F0A2EC0EF08EC0ABF08FC0ACF042
:1012080090C0ADF091C0AEF0ABC08EF0ACC08FF026
:10121800ADC090F0AEC091F0000E0001836F0A0ED1
:10122800826F0001AF510001806F816B80BF810721
:1012380084EC22F00001D890803781370001D890E3
:1012480080378137270E00018025F66EFF0E0001DA
:101258008121F76EF86A000EF8220900F5CF92F0A6
:101268000900F5CF93F00900F5CF94F00A00F5CF07
:1012780095F0A2EC0EF08EC0A7F08FC0A8F090C039
:10128800A9F091C0AAF012000001AF51800A750FB1
:10129800D8A063D0000E0001896F0A0E886F000184
:1012A800AF510001866F876B86BF870711EC21F06D
:1012B8000001D890863787370001D890863787375E
:1012C800240E00018627000E00018723270E000147
:1012D8008625F66EFF0E00018721F76EF86A000E6C
:1012E800F8220900F5CF8EF00900F5CF8FF009003C
:1012F800F5CF90F00A00F5CF91F0000E0001836F52
:101308000A0E826F0001AF510001806F816B80BFB0
:10131800810784EC22F00001D890803781370001E2
:10132800D89080378137270E00018025F66EFF0E92
:1013380000018121F76EF86A000EF8220900F5CF46
:1013480092F00900F5CF93F00900F5CF94F00A0068
:10135800F5CF95F0A2EC0EF08ED70001AF51040D39
:10136800270EF324F66EFF0EF420F76EF86A000ECF
:10137800F8220900F5CFA7F00900F5CFA8F0090079
:10138800F5CFA9F00A00F5CFAAF01200DDEC24F0A1
:1013980070EC24F033EC27F00C0E0FEC25F0040071
:1013A800000E22EC23F0C0C04FF1C1C050F1C2C002
:1013B80051F1C3C052F1020E22EC23F0C0C056F125
:1013C800C1C057F1C2C058F1C3C059F156C18EF01F
:1013D80057C18FF058C190F059C191F0000E00012B
:1013E800926F000E936F960E946F430E956FA2EC5A
:1013F8000EF08EC0E6F08FC0E7F090C0E8F091C024
:10140800E9F0E6C0A7F0E7C0A8F0E8C0A9F0E9C095
:10141800AAF0000E0001AB6F000EAC6FA00EAD6F0E
:10142800400EAE6FF5EC10F0A7C0E2F0A8C0E3F0F4
:10143800A9C0E4F0AAC0E5F081B603D086EC1DF09F
:101448001AD081B803D028EC1EF015D081BA13D079
:10145800000E516E000E506E829A000E596E000EEC
:10146800586E000E576E000E566E000E556E000E2A
:10147800546E000E5E6E010E00018A6F010E94EC30
:1014880025F01F0E0001D46F010E0001D56F830EE9
:101498000001D66FFF0E0001D76F54C0D8F055C0B9
:1014A800D9F056C0DAF057C0DBF058C0DCF059C0AC
:1014B800DDF00DEC00F01F0E00018E6F010E000133
:1014C8008F6FFBEC26F0020E00018A6F010E94EC80
:1014D80025F01F0E0001D46F010E0001D56FA30E79
:1014E8000001D66FFF0E0001D76FE6C0D8F0E7C045
:1014F800D9F0E8C0DAF0E9C0DBF00DEC00F01F0E1F
:1015080000018E6F010E00018F6FFBEC26F0020EBA
:1015180000018A6F0B0E94EC25F050045110D8B4DA
:1015280005D0F60E01013F6FFF0E04D0FA0E01013F
:101538003F6FFF0E0101406F1F0E0001D46F010EB7
:101548000001D56FDB0E0001D66FFF0E0001D76FCB
:101558003FC1D8F040C1D9F00DEC00F01F0E0001DA
:101568008E6F010E00018F6FFBEC26F0030E000159
:101578008A6F010E94EC25F01F0E0001D46F010E46
:101588000001D56F980E0001D66FFF0E0001D76FCE
:10159800E2C0D8F0E3C0D9F0E4C0DAF0E5C0DBF08F
:1015A8000DEC00F01F0E00018E6F010E00018F6F11
:1015B800FBEC26F0030E00018A6F0B0E94EC25F06D
:1015C80082BA05D0F60E0101416FFF0E04D0FA0E63
:1015D8000101416FFF0E0101426F1F0E0001D46F20
:1015E800010E0001D56FE10E0001D66FFF0E00015C
:1015F800D76F41C1D8F042C1D9F00DEC00F01F0EF1
:1016080000018E6F010E00018F6FFBEC26F0040EB7
:1016180000018A6F010E94EC25F00001EE510001E3
:10162800EF11D8B45ED00001EE050001EF11D8B477
:101638004DD0020E0001EE190001EF11D8B43BD0D5
:10164800030E0001EE190001EF11D8B429D0040EE1
:101658000001EE190001EF11D8B417D0050E0001F2
:10166800EE190001EF11D8B405D0F10E01014D6F4C
:10167800FF0E04D0EC0E01014D6FFF0E01014E6FFD
:101688004DC14BF14EC14CF106D0E70E01014B6F35
:10169800FF0E01014C6F4BC149F14CC14AF106D014
:1016A800C90E0101496FFF0E01014A6F49C147F197
:1016B8004AC148F106D0CB0E0101476FFF0E010168
:1016C800486F47C145F148C146F106D0CF0E010128
:1016D800456FFF0E0101466F45C143F146C144F114
:1016E80006D0D10E0101436FFF0E0101446F1F0E9A
:1016F8000001D46F010E0001D56FD50E0001D66F21
:10170800FF0E0001D76F43C1D8F044C1D9F00DECEA
:1017180000F01F0E00018E6F010E00018F6FFBECB1
:1017280026F081B616D0050E0001EE190001EF1162
:10173800D8A40FD00A0E5E18D8A403D00A0E5E6E85
:1017480001D05E2A000E0001816FC80E806FA3ECE5
:1017580026F081B816D0050E0001EE190001EF1130
:10176800D8A40FD05E50D8A403D0000E5E6E09D066
:101778005E045E6E000E0001816FC80E806FA3ECE0
:1017880026F0ABEC24F0040E00018A6F080E94ECEE
:1017980025F080BA0AD0010155510101D8A402D020
:1017A800010E01D0000E0101556F010155510101D3
:1017B800D8A41DD01F0E0001D46F010E0001D56FF3
:1017C800BC0E0001D66FFF0E0001D76F5E500A0DE8
:1017D800F3CFD8F0F4CFD9F00DEC00F01F0E0001D4
:1017E8008E6F010E00018F6FFBEC26F018D01F0ED4
:1017F8000001D46F010E0001D56FC30E0001D66F32
:10180800FF0E0001D76F0DEC00F01F0E00018E6F68
:10181800010E00018F6FFBEC26F032EC1CF0040E79
:1018280000018A6F0D0E94EC25F01F0E0001D46F95
:10183800010E0001D56FB50E0001D66FFF0E000135
:10184800D76FECC0D8F0EDC0D9F00DEC00F01F0E4A
:1018580000018E6F010E00018F6FFBEC26F0040E65
:1018680000018A6F080E94EC25F00101530501016F
:101878005411D8A407D0000E0101546F000E536F05
:10188800F3EC23F0000E0001816FC80E806FA3EC0B
:1018980026F085D50001B751800B0001C46F000107
:1018A800B751B7250001C66F0001B6AF02D00001DD
:1018B800C6810001C6510001D8B412D00001C62962
:1018C800D8A409D0000E0001B46F000EB56F000E49
:1018D800B66F000EB76F0001B68F000E000108D07A
:1018E800000E0001B46F000EB56F000EB66F000E4B
:1018F800B76F0001BB51800B0001C56F0001C451D7
:101908000001C519D8B402D00001C48D0001BB5133
:10191800BB250001C56F0001BAAF02D00001C58127
:101928000001C5510001D8B412D00001C529D8A4BE
:1019380009D0000E0001B86F000EB96F000EBA6F23
:10194800000EBB6F0001BA8F000E000108D0000E18
:101958000001B86F000EB96F000EBA6F000EBB6FB2
:101968000001C6510001C55DD8B024D00001C4AD46
:1019780003D0800E0001C41BC6C0C7F0C5C0C6F0A6
:10198800C7C0C5F0B4C0C7F0B8C0B4F0C7C0B8F09D
:10199800B5C0C7F0B9C0B5F0C7C0B9F0B6C0C7F098
:1019A800BAC0B6F0C7C0BAF0B7C0C7F0BBC0B7F08E
:1019B800C7C0BBF0000E0001C76F0001C65100018F
:1019C800BC6FBD6B0001BC1FBD1FBC4BBD2B000114
:1019D800C5510001BE6FBF6B0001BC510001BE279D
:1019E8000001BD510001BF230001BFBF3DD0000170
:1019F800BF5105E11A0E0001BE5DD8A035D0000127
:101A0800B4510001B5110001B6110001B711D8B4E5
:101A180002D0010E01D0000E0001C76F000E0001B8
:101A2800B46F000EB56F000EB66F000EB76FC5C06D
:101A3800C6F020D00001C7A107D00001D890C73157
:101A480001090001C76F03D00001D890C733000116
:101A5800B4A102D00001C78F0001B735B733B63340
:101A6800B533B4330001C62B0001C5510001C65D72
:101A7800D8A0E0D70001C4BD3FD00001C651000185
:101A8800D8A40AD0000E0001B46F000EB56F000E86
:101A9800B66F000EB76F12000001B8510001B427ED
:101AA8000001B9510001B5230001BA510001B62364
:101AB8000001BB510001B7230001B7A1CCD0000140
:101AC800C7A109D00001D890C7330001C751010947
:101AD8000001C76F03D00001D890C7330001B4A13B
:101AE80002D00001C78F0001B735B733B633B5331D
:101AF800B4330001C62BAFD00001B8510001B45D6A
:101B08000001B9510001B5590001BA510001B65997
:101B18000001B751800A0001BC6F0001BB51800A67
:101B28000001BC59D8B050D0B4C0BCF0B5C0BDF0AD
:101B3800B6C0BEF0B7C0BFF00001BC1FBD1FBE1FBE
:101B4800BF1FBC2B000EBD23BE23BF230001B8510D
:101B58000001BC250001C06F0001B9510001BD2181
:101B68000001C16F0001BA510001BE210001C26F1E
:101B78000001BB510001BF210001C36FFF0E00012E
:101B8800C0250001B46FFF0E0001C1210001B56F2F
:101B9800FF0E0001C2210001B66FFF0E0001C32134
:101BA8000001B76F800E0001C41B0001C76D000162
:101BB800C7510001D8A418D0010E0001B427000EA7
:101BC800B523B623B72310D00001B8510001B45F84
:101BD8000001B9510001B55B0001BA510001B65BC3
:101BE8000001BB510001B75B0001B4510001B51100
:101BF8000001B6110001B711D8A42AD00001C751BD
:101C08000001D8A425D0000E0001B46F000EB56FF6
:101C1800000EB66F000EB76F12000001D890B437EF
:101C2800B537B637B7370001C7AF02D00001B48166
:101C38000001C7A103D0D880000102D00001D890CC
:101C4800C7370001C6510001D8B402D00001C60749
:101C58000001B6AFE2D7000E0001C56F0001C7AFA3
:101C68000DD0C7C0BCF07F0E0001BC17D8A403D0AC
:101C78000001B4A103D0010E0001C56F0001C551D8
:101C88000001D8B426D0010E0001B427000EB523F8
:101C9800B623B7230001B7A11CD0B4C0BCF0B5C0AF
:101CA800BDF0B6C0BEF0B7C0BFF00001BF35BF334E
:101CB800BE33BD33BC33BCC0B4F0BDC0B5F0BEC08C
:101CC800B6F0BFC0B7F00001C629D8B402D00001F1
:101CD800C62B0001C629D8B405D00001C6510001A1
:101CE800D8A411D0000E0001B46F000EB56F000E1D
:101CF800B66F000EB76F0001C6510001D8A403D01B
:101D0800000E0001C46F0001C6A103D00001B68F08
:101D180002D00001B69F0001D890C6310001B76F0C
:101D28000001C4AF02D00001B78FB4C0B4F0B5C091
:101D3800B5F0B6C0B6F0B7C0B7F0120000019151C7
:101D4800800B00019A6F0001915191250001A06F4D
:101D5800000190AF02D00001A0810001A051000154
:101D6800D8B410D00001A029D8A409D0000E0001D1
:101D78008E6F000E8F6F000E906F000E916F000136
:101D8800908F09D0000E00018E6F000E8F6F000E2D
:101D9800906F000E916F00019551800B00019A1B06
:101DA80000019551952500019F6F000194AF02D065
:101DB80000019F8100019F510001D8B410D000019B
:101DC8009F29D8A409D0000E0001926F000E936FCE
:101DD800000E946F000E956F0001948F09D0000ECD
:101DE8000001926F000E936F000E946F000E956FB6
:101DF80000019F510001D8B405D00001A051000195
:101E0800D8A40AD0000E00018E6F000E8F6F000E4E
:101E1800906F000E916F12000001945100018E0323
:101E2800F3CFA5F0F4CFA6F00001A55100019B6FF8
:101E38009C6B9D6B9E6B0001A6510001A16FA26B6C
:101E4800A36BA46B0001935100018F03F3CFA5F09E
:101E5800F4CFA6F00001A55100019B27000E9C239A
:101E68009D239E230001A6510001A127000EA22355
:101E7800A323A4230001925100019003F3CFA5F0FE
:101E8800F4CFA6F00001A55100019B27000E9C236A
:101E98009D239E230001A6510001A127000EA22325
:101EA800A323A4239DC09EF09CC09DF09BC09CF0E2
:101EB80000019B6B0001925100018F03F3CFA5F045
:101EC800F4CFA6F00001A55100019B270001A651FF
:101ED80000019C23000E00019D23000E00019E239B
:101EE8000001935100018E03F3CFA5F0F4CFA6F0C3
:101EF8000001A55100019B270001A65100019C2368
:101F0800000E00019D23000E00019E239DC09EF03F
:101F18009CC09DF09BC09CF000019B6B00019251FE
:101F280000018E03F3CFA5F0F4CFA6F00001A55170
:101F380000019B270001A65100019C23000E00010F
:101F48009D23000E00019E230001945100018F0380
:101F5800F3CFA5F0F4CFA6F00001A5510001A12709
:101F68000001A6510001A223000E0001A323000EC8
:101F78000001A4230001935100019003F3CFA5F0C1
:101F8800F4CFA6F00001A5510001A1270001A65138
:101F98000001A223000E0001A323000E0001A423C8
:101FA8000001945100019003F3CFA5F0F4CFA6F0FF
:101FB8000001A5510001966F0001A6510001976F1D
:101FC8000001986B0001996B98C099F097C098F040
:101FD80096C097F00001966B000196510001A12769
:101FE800000197510001A223000198510001A32389
:101FF800000199510001A4239BC096F09CC097F062
:102008009DC098F09EC099F0190E06D00001D89096
:102018009933983397339633E82EF8D700019651C1
:102028000001A127000197510001A2230001985146
:102038000001A323000199510001A4239DC09EF033
:102048009CC09DF09BC09CF000019B6B00019F51C0
:10205800A0C096F00001976B00019627000E972309
:10206800820E000196250001A56FFF0E0001972141
:102078000001A66F15D00001D890A137A237A33769
:10208800A43700019EAF02D00001A1810001D890C1
:102098009B379C379D379E370001A507D8A0A60718
:1020A8000001A3AFE8D7000E00019F6F00019EAFAB
:1020B80024D0FF0E00019B150001966FFF0E000152
:1020C8009C150001976FFF0E00019D150001986F88
:1020D8007F0E00019E150001996F000196510001C5
:1020E80097110001981100019911D8A403D000019B
:1020F800A1A103D0010E00019F6F00019F510001B3
:10210800D8B423D0010E0001A127000EA223A323D7
:10211800A4230001A4A119D0A1C096F0A2C097F0F1
:10212800A3C098F0A4C099F0000199359933983369
:102138009733963396C0A1F097C0A2F098C0A3F049
:1021480099C0A4F00001A54BA62B0001A6BF10D092
:102158000001A65104E10001A529D8A009D0000E6C
:102168000001A16F000EA26F800EA36F7F0E2BD00F
:102178000001A6BF07D00001A65111E10001A50585
:10218800D8B00DD0000E0001A16F000EA26F000E96
:10219800A36F000EA46F000E00019A6F15D0A5C0A2
:1021A800A0F0FF0E0001A117FF0EA2177F0EA317C4
:1021B800000EA4170001A0A102D00001A38F000106
:1021C800D890A0310001A46F00019A510001A41316
:1021D800A1C08EF0A2C08FF0A3C090F0A4C091F06F
:1021E80012000001AA51800B0001B36F0001AA512F
:1021F800AA250001BE6F0001A9AF02D00001BE816F
:102208000001BE510001D8B412D00001BE29D8A4E3
:1022180009D0000E0001A76F000EA86F000EA96F6D
:10222800000EAA6F0001A98F000E000108D0000E51
:102238000001A76F000EA86F000EA96F000EAA6F0D
:102248000001AE51800B0001B31B0001AE51AE2559
:102258000001BF6F0001ADAF02D00001BF810001D6
:10226800BF510001D8B412D00001BF29D8A409D0A9
:10227800000E0001AB6F000EAC6F000EAD6F000ECC
:10228800AE6F0001AD8F000E000108D0000E0001F6
:10229800AB6F000EAC6F000EAD6F000EAE6F00019D
:1022A800AB510001AC110001AD110001AE11D8A471
:1022B80017D0000E0001A76F000EA86F000EA96FBF
:1022C800000EAA6F0001800EA9137F0EAA13A7C0E3
:1022D800A7F0A8C0A8F0A9C0A9F0AAC0AAF0120047
:1022E8000001BE510001D8A412D0000E0001A76F52
:1022F800000EA86F000EA96F000EAA6FA7C0A7F066
:10230800A8C0A8F0A9C0A9F0AAC0AAF012000001AC
:10231800BF510001AF6FB06B0001AF1FB01FAF4BD3
:10232800B02B0001BE510001B16FB26B0001AF517B
:102338000001B1270001B0510001B2237F0E000156
:10234800B1250001B86F000E0001B2210001B96F7C
:10235800A7C0B4F0A8C0B5F0A9C0B6F0AAC0B7F03D
:10236800000E0001A76F000EA86F000EA96F000EE7
:10237800AA6F000E0001BA6F000EBB6F000EBC6F93
:10238800000EBD6F000E0001BF6F42D00001BF51AB
:102398000001D8B417D00001D890B437B537B63794
:1023A800B7370001D890A737A837A937AA3700014F
:1023B800BDAF02D00001A7810001D890BA37BB3762
:1023C800BC37BD370001AB510001B45D0001AC5111
:1023D8000001B5590001AD510001B6590001AE51D7
:1023E8000001B759D8A012D00001BD8D0001AB5132
:1023F8000001B45F0001AC510001B55B0001AD51B3
:102408000001B65B0001AE510001B75B0001BF2BB4
:10241800190E0001BF65BAD70001B4510001B5110A
:102428000001B6110001B711D8B418D00001BA8163
:1024380015D00001D890A737A837A937AA370001C7
:10244800BDAF02D00001A7810001D890BA37BB37D1
:10245800BC37BD370001B807D8A0B9070001A9AF3C
:10246800E8D7000E0001BF6F0001BDAF24D0FF0EFA
:102478000001BA150001AF6FFF0E0001BB15000186
:10248800B06FFF0E0001BC150001B16F7F0E000197
:10249800BD150001B26F0001AF510001B01100017C
:1024A800B1110001B211D8A403D00001A7A103D033
:1024B800010E0001BF6F0001BF510001D8B423D045
:1024C800010E0001A727000EA823A923AA230001B3
:1024D800AAA119D0A7C0AFF0A8C0B0F0A9C0B1F0A8
:1024E800AAC0B2F00001B235B233B133B033AF3362
:1024F800AFC0A7F0B0C0A8F0B1C0A9F0B2C0AAF0B0
:102508000001B84BB92B0001B9BF14D00001B95173
:1025180004E10001B829D8A00DD0000E0001B96F60
:10252800B869000E0001A76F000EA86F000EA96F12
:10253800000EAA6F0001B9BF07D00001B95115E11B
:102548000001B805D8B011D0000E0001B96F000E17
:10255800B86F000E0001A76F000EA86F000EA96FDC
:10256800000EAA6F000E0001B36FB8C0BEF00001E4
:10257800BEA103D00001A98F02D00001A99F0001CC
:10258800D890BE310001AA6F0001B3510001AA130F
:10259800A7C0A7F0A8C0A8F0A9C0A9F0AAC0AAF02F
:1025A80012000450800B0D6E04500424136E03BEF9
:1025B80013801350D8B40DD01328D8A408D0000E17
:1025C800016E000E026E000E036E000E046E038E86
:1025D80008D0000E016E000E026E000E036E000E93
:1025E800046E0850800B0D1A08500824126E07BE9E
:1025F80012801250D8B40DD01228D8A408D0000EDA
:10260800056E000E066E000E076E000E086E078E31
:1026180008D0000E056E000E066E000E076E000E46
:10262800086E1250D8B403D01350D8A409D0000EA5
:10263800016E000E026E000E036E000E046E120094
:1026480007500102F3CF18F0F4CF19F018500E6EAE
:102658000F6A106A116A1950146E156A166A176A99
:1026680006500202F3CF18F0F4CF19F018500E26D6
:10267800000E0F221022112219501426000E1522C6
:102688001622172205500302F3CF18F0F4CF19F0E1
:1026980018500E26000E0F2210221122195014264F
:1026A800000E15221622172210C011F00FC010F0CC
:1026B8000EC00FF00E6A05500202F3CF18F0F4CFE7
:1026C80019F018500E2619500F22000E1022000E75
:1026D800112206500102F3CF18F0F4CF19F0185068
:1026E8000E2619500F22000E1022000E112210C0C3
:1026F80011F00FC010F00EC00FF00E6A0550010265
:10270800F3CF18F0F4CF19F018500E2619500F22F5
:10271800000E1022000E112207500202F3CF18F00B
:10272800F4CF19F01850142619501522000E16224D
:10273800000E172206500302F3CF18F0F4CF19F059
:102748001850142619501522000E1622000E1722B2
:1027580007500302F3CF18F0F4CF19F01850096EA0
:1027680019500A6E0B6A0C6A0BC00CF00AC00BF009
:1027780009C00AF0096A095014260A5015220B509C
:1027880016220C5017220EC009F00FC00AF010C014
:102798000BF011C00CF0190E05D0D8900C320B328A
:1027A8000A320932E82EF9D7095014260A501522A0
:1027B8000B5016220C50172210C011F00FC010F049
:1027C8000EC00FF00E6A125013C009F00A6A0926EB
:1027D800000E0A22820E0924186EFF0E0A20196EB6
:1027E8000FD0D890143615361636173611BE148009
:1027F800D8900E360F36103611361806D8A019069E
:1028080016AEEFD7000E126E11AE16D0FF0E0E14D4
:10281800096EFF0E0F140A6EFF0E10140B6E7F0E5A
:1028280011140C6E09500A100B100C10D8A402D009
:1028380014A002D0010E126E1250D8B41FD0010E8F
:102848001426000E15221622172217A017D014C01E
:1028580009F015C00AF016C00BF017C00CF00C34C4
:102868000C320B320A32093209C014F00AC015F0D2
:102878000BC016F00CC017F0184A192A19BE0DD053
:10288800195003E11828D8A008D0000E146E000EC5
:10289800156E800E166E7F0E20D019BE05D0195009
:1028A8000EE11804D8B00BD0000E146E000E156E91
:1028B800000E166E000E176E000E0D6E0FD018C0AB
:1028C80013F0FF0E1416FF0E15167F0E1616000EC7
:1028D800171613B0168ED8901330176E0D501712A6
:1028E80014C001F015C002F016C003F017C004F0C0
:1028F80012000450800B116E04500424136E03BEA2
:1029080013801350D8B40DD01328D8A408D0000EC3
:10291800016E000E026E000E036E000E046E038E32
:1029280006D0000E016E000E026E000E036E000E41
:10293800046E0850800B126E11501218D8A4118C16
:1029480008500824126E07BE12801250D8B40DD059
:102958001228D8A408D0000E056E000E066E000ED0
:10296800076E000E086E078E06D0000E056E000E6C
:10297800066E000E076E000E086E1350125CD8B07B
:1029880022D011AC02D0800E111A13C014F012C05C
:1029980013F014C012F001C014F005C001F014C007
:1029A80005F002C014F006C002F014C006F003C01F
:1029B80014F007C003F014C007F004C014F008C0F6
:1029C80004F014C008F0000E146E1350096E0A6A61
:1029D800091E0A1E094A0A2A12500B6E0C6A09506F
:1029E8000B260A500C220CBE2CD00C5004E11A0EF7
:1029F8000B5CD8A026D00150021003100410D8B4E4
:102A080002D0010E01D0000E146E000E016E000EF1
:102A1800026E000E036E000E046E12C013F015D085
:102A280014A005D0D89014300109146E02D0D890A3
:102A3800143201B0148E04340432033202320132EB
:102A4800132A1250135CD8A0EBD711BC29D013500D
:102A5800D8A409D0000E016E000E026E000E036E9F
:102A6800000E046E1200055001260650022207507F
:102A780003220850042204A083D014A006D0D890C2
:102A8800143214500109146E02D0D890143201B0D7
:102A9800148E04340432033202320132132A70D005
:102AA8000550015C06500258075003580450800A2C
:102AB800096E0850800A0958D8B036D001C009F00C
:102AC80002C00AF003C00BF004C00CF0091E0A1E75
:102AD8000B1E0C1E092A000E0A220B220C2205507E
:102AE80009240D6E06500A200E6E07500B200F6E3B
:102AF80008500C20106EFF0E0D24016EFF0E0E20E4
:102B0800026EFF0E0F20036EFF0E1020046E800E63
:102B1800111A146C1450D8A40FD0010E0126000EFF
:102B280002220322042208D00550015E0650025AF0
:102B38000750035A0850045A015002100310041099
:102B4800D8A41CD01450D8A419D0000E016E000EC1
:102B5800026E000E036E000E046E1200D89001364D
:102B680002360336043614BE018014A002D0D88081
:102B780001D0D89014361350D8A4130603AEEED75C
:102B8800000E126E14AE0AD014C009F07F0E09169A
:102B9800D8A402D001A002D0010E126E1250D8B4EF
:102BA80020D0010E0126000E02220322042204A0D6
:102BB80018D001C009F002C00AF003C00BF004C02D
:102BC8000CF00C340C320B320A32093209C001F015
:102BD8000AC002F00BC003F00CC004F01328D8A4FC
:102BE800132A1328D8B403D01350D8A40DD0000E3C
:102BF800016E000E026E000E036E000E046E13507E
:102C0800D8A402D0000E116E13A002D0038E01D0FA
:102C1800039ED8901330046E11BE048E01C001F0DB
:102C280002C002F003C003F004C004F01200000167
:102C3800B36F6D0E0001B365CDD0000E0001896F32
:102C48000A0E886F000E0001836F640E826FB3C096
:102C580080F00001816B84EC22F080C086F081C096
:102C680087F011EC21F00001D890863787370001F2
:102C7800D89086378737240E00018627000E00017A
:102C88008723F30E00018625F66EFE0E00018721CC
:102C9800F76EF86A000EF8220900F5CF92F00900E5
:102CA800F5CF93F00900F5CF94F00A00F5CF95F031
:102CB800000E0001896F640E886FB3C086F00001B2
:102CC800876B11EC21F00001D89086378737000117
:102CD800D89086378737480E00018627000E0001F6
:102CE8008723F30E00018625F66EFE0E000187216C
:102CF800F76EF86A000EF8220900F5CF8EF0090089
:102D0800F5CF8FF00900F5CF90F00A00F5CF91F0DC
:102D1800A2EC0EF08EC0AFF08FC0B0F090C0B1F052
:102D280091C0B2F0000E0001836F0A0E826FB3C02B
:102D380080F00001816B84EC22F00001D89080378C
:102D480081370001D89080378137F30E0001802544
:102D5800F66EFE0E00018121F76EF86A000EF82269
:102D68000900F5CF92F00900F5CF93F00900F5CFEF
:102D780094F00A00F5CF95F0AFC08EF0B0C08FF098
:102D8800B1C090F0B2C091F0A2EC0EF08EC0ABF0E2
:102D98008FC0ACF090C0ADF091C0AEF0ABC08EF07B
:102DA800ACC08FF0ADC090F0AEC091F0000E000145
:102DB800926F000E936F000E946F3F0E956FA2EC0A
:102DC8000EF08EC0A7F08FC0A8F090C0A9F091C0F7
:102DD800AAF012000A0E0001B36578D0000E0001B7
:102DE800836F0A0E826FB3C080F00001816B84ECA0
:102DF80022F00001D890803781370001D8908037C1
:102E08008137F30E00018025F66EFE0E0001812148
:102E1800F76EF86A000EF8220900F5CF92F0090063
:102E2800F5CF93F00900F5CF94F00A00F5CF95F0AF
:102E3800000E0001896F0A0E886FB3C086F000018A
:102E4800876B11EC21F00001D89086378737000195
:102E5800D89086378737240E00018627000E000198
:102E68008723F30E00018625F66EFE0E00018721EA
:102E7800F76EF86A000EF8220900F5CF8EF0090007
:102E8800F5CF8FF00900F5CF90F00A00F5CF91F05B
:102E9800A2EC0EF08EC0AFF08FC0B0F090C0B1F0D1
:102EA80091C0B2F0AFC08EF0B0C08FF0B1C090F05A
:102EB800B2C091F0000E0001926F000E936F000EE9
:102EC800946F3F0E956FA2EC0EF07BD70001B351C3
:102ED800040DF30EF324F66EFE0EF420F76EF86A76
:102EE800000EF8220900F5CF8EF00900F5CF8FF01B
:102EF8000900F5CF90F00A00F5CF91F0000E00011F
:102F0800926F000E936F000E946F3F0E956FA2ECB8
:102F18000EF08EC0A7F08FC0A8F090C0A9F091C0A5
:102F2800AAF012001D50800B266E1D501D24316E14
:102F38001CBE31803150D8B40DD03128D8A408D067
:102F4800000E1A6E000E1B6E000E1C6E000E1D6E1B
:102F58001C8E06D0000E1A6E000E1B6E000E1C6E24
:102F6800000E1D6E2150800B261A21502124326E2E
:102F780020BE32803250D8B40DD03228D8A408D020
:102F8800000E1E6E000E1F6E000E206E000E216ECB
:102F9800208E06D0000E1E6E000E1F6E000E206ED4
:102FA800000E216E1E501F1020102110D8A415D01D
:102FB800000E1A6E000E1B6E000E1C6E000E1D6EAB
:102FC800800E1C127F0E1D121AC01AF01BC01BF0B7
:102FD8001CC01CF01DC01DF012003150D8A411D027
:102FE800000E1A6E000E1B6E000E1C6E000E1D6E7B
:102FF8001AC01AF01BC01BF01CC01CF01DC01DF02D
:1030080012003250226E236A221E231E224A232ACD
:103018003150246E256A22502426235025227F0E03
:1030280024242B6E000E25202C6E1AC027F01BC0FE
:1030380028F01CC029F01DC02AF0000E1A6E000EE0
:103048001B6E000E1C6E000E1D6E000E2D6E000E07
:103058002E6E000E2F6E000E306E000E326E28D0CF
:103068003250D8B411D0D8902736283629362A3687
:10307800D8901A361B361C361D3630BE1A80D890AA
:103088002D362E362F3630361E50275C1F502858C6
:103098002050295821502A58D8A009D0308C1E50C9
:1030A800275E1F50285A2050295A21502A5A322A5E
:1030B800190E3264D5D72750281029102A10D8B4F1
:1030C80011D02D800FD0D8901A361B361C361D36DD
:1030D80030BE1A80D8902D362E362F3630362B0635
:1030E800D8A02C061CAEEFD7000E326E30AE16D02C
:1030F800FF0E2D14226EFF0E2E14236EFF0E2F14BA
:10310800246E7F0E3014256E2250231024102510B3
:10311800D8A402D01AA002D0010E326E3250D8B410
:103128001FD0010E1A26000E1B221C221D221DA0D4
:1031380017D01AC022F01BC023F01CC024F01DC0F9
:1031480025F02534253224322332223222C01AF0C7
:1031580023C01BF024C01CF025C01DF02B4A2C2ACC
:103168002CBE10D02C5003E12B28D8A00BD0000E79
:103178002C6E2B68000E1A6E000E1B6E000E1C6E55
:10318800000E1D6E2CBE05D02C5011E12B04D8B0BA
:103198000ED0000E2C6E000E2B6E000E1A6E000E56
:1031A8001B6E000E1C6E000E1D6E000E266E2BC0D0
:1031B80031F031A002D01C8E01D01C9ED890313045
:1031C8001D6E26501D121AC01AF01BC01BF01CC021
:1031D8001CF01DC01DF0120000018E6F00018E5101
:1031E8000001D8B41ED0000189AF1BD086C08AF078
:1031F80087C08BF088C08CF089C08DF000018A1FD1
:103208008B1F8C1F8D1F8A2B000E8B238C238D23E5
:103218008AC090F08BC091F08CC092F08DC093F072
:1032280008D086C090F087C091F088C092F089C01D
:1032380093F00001865100018711000188110001F7
:103248008911D8A40AD0000E0001866F000E876F7E
:10325800000E886F000E896F1200960E00018F6FA6
:1032680008D000018F2B0001D8909333923391330B
:103278009033000E0001901500018A6F000E0001C6
:10328800911500018B6F000E0001921500018C6FE3
:10329800FE0E0001931500018D6F00018A51000197
:1032A8008B1100018C1100018D11D8B410D0D9D721
:1032B80000018F2B010E00019027000E912392230D
:1032C80093230001D8909333923391339033000EB7
:1032D8000001901500018A6F000E00019115000190
:1032E8008B6F000E0001921500018C6FFF0E00011C
:1032F800931500018D6F00018A5100018B110001A7
:103308008C1100018D11D8B409D0D2D700018F07D4
:103318000001D8909037913792379337000192BFC8
:1033280004D0020E00018F61F1D700018FB109D0DE
:10333800FF0E00019017FF0E91177F0E9217FF0ED8
:1033480093170001D8908F338FC08AF000018B6BE0
:103358008C6B8D6B8AC08DF000018C6B8B6B8A6BCC
:1033680000018A510001901300018B510001911353
:1033780000018C510001921300018D51000193133B
:1033880000018E510001D8B405D0000189AF02D0E8
:103398000001938F90C086F091C087F092C088F0AA
:1033A80093C089F0120082C088F00001896B8A6B93
:1033B800000181350001883701E3898100018851C6
:1033C8000001906F00019051D8A40AD0000E0001AE
:1033D800806F000E816F000E826F000E836F1200E7
:1033E80086C088F00001896B8A6B00018535000171
:1033F800883701E389810001885100018F6F00013E
:103408008F51D8A40AD0000E0001806F000E816F82
:10341800000E826F000E836F12000001818FFF0E75
:1034280000018017FF0E00018117000E00018217AE
:103438000001858FFF0E00018417FF0E000185171C
:10344800000E00018617000E00018B6F000E8C6FB6
:10345800000E8D6F000E8E6F7F0E0001905F0001D1
:103468008F51980F0001905F180E00018F6F0001B7
:10347800D8908B378C378D378E37000184510001F7
:10348800805D0001855100018159000186510001CC
:103498008259D8A00ED0000184510001805F00013C
:1034A80085510001815B000186510001825B0001AA
:1034B8008B810001D89080378137823700018F2FA8
:1034C800D6D7000190AF1AD000019051800A970F0B
:1034D800D8B00AD0000E0001806F000E816F000E78
:1034E800826F000E836F12000001D8908E338D33E7
:1034F8008C338B330001903FF7D71BD0170E000198
:10350800906512D0000E0001806F000E816F000ED2
:10351800826F000E836F12000001D8908B378C37B2
:103528008D378E3700019007000190510001D8A413
:10353800F3D78BC080F08CC081F08DC082F08EC034
:1035480083F01200000E0001C8150001D06F000EB4
:103558000001C9150001D16F800E0001CA150001D4
:10356800D26F7F0E0001CB150001D36F0001D0513F
:103578000001D1110001D2110001D311D8A409D042
:10358800000E0001C86F000EC96F000ECA6F000E52
:10359800CB6F000E0001CC150001D06F000E0001AA
:1035A800CD150001D16F800E0001CE150001D26F3C
:1035B8007F0E0001CF150001D36F0001D05100012B
:1035C800D1110001D2110001D311D8A409D0000EE5
:1035D8000001CC6F000ECD6F000ECE6F000ECF6FC6
:1035E8000001CBAF26D0C8C0D0F0C9C0D1F0CAC046
:1035F800D2F0CBC0D3F00001D01FD11FD21FD31FF0
:10360800D02B000ED123D223D323000E0001D025C6
:103618000001C86F000E0001D1210001C96F000E22
:103628000001D2210001CA6F800E0001D3210001E0
:10363800CB6F0001CFAF26D0CCC0D0F0CDC0D1F039
:10364800CEC0D2F0CFC0D3F00001D01FD11FD21FFF
:10365800D31FD02B000ED123D223D323000E000179
:10366800D0250001CC6F000E0001D1210001CD6FE3
:10367800000E0001D2210001CE6F800E0001D3217F
:103688000001CF6F000E0001C81B000EC91B000E01
:10369800CA1B800ECB1B000E0001CC1B000ECD1BDD
:1036A800000ECE1B800ECF1B0001CC510001C85D5F
:1036B8000001CD510001C9590001CE510001CA597C
:1036C8000001CF510001CB59D8B002D0D8901200D8
:1036D800D880120000018235833500018D6F00010A
:1036E8008D51D8A40AD0000E0001806F000E816FA2
:1036F800000E826F000E836F120000018635873539
:1037080000018C6F00018C51D8A40AD0000E000172
:10371800806F000E816F000E826F000E836F1200A3
:103728000001828FFF0E00018017FF0E8117FF0E28
:103738008217000E83170001868FFF0E0001841781
:10374800FF0E8517FF0E8617000E8717000E000163
:10375800886F000E896F000E8A6F000E8B6F7F0EC8
:1037680000018D5F00018C51A00F00018D5F200EBC
:1037780000018C6F0001D890883789378A378B37DA
:10378800000184510001805D0001855100018159CB
:1037980000018651000182590001875100018359B7
:1037A800D8A012D0000184510001805F000185512A
:1037B8000001815B000186510001825B0001875195
:1037C8000001835B000188810001D8908037813730
:1037D8008237833700018C2FCDD700018DAF1AD0E7
:1037E80000018D51800A9F0FD8B00AD0000E000149
:1037F800806F000E816F000E826F000E836F1200C3
:103808000001D8908B338A338933883300018D3F88
:10381800F7D71BD01F0E00018D6512D0000E0001D6
:10382800806F000E816F000E826F000E836F120092
:103838000001D890883789378A378B3700018D0780
:1038480000018D510001D8A4F3D788C080F089C049
:1038580081F08AC082F08BC083F01200E2C0B8F019
:10386800E3C0B9F0E4C0BAF0E5C0BBF0ECC086F044
:10387800EDC087F00001000E87BFFF0E886F896FCB
:10388800010EF0EC18F086C0B4F087C0B5F088C01F
:10389800B6F089C0B7F04EEC0CF0B4C0C8F0B5C0B3
:1038A800C9F0B6C0CAF0B7C0CBF0E6C0CCF0E7C0EC
:1038B800CDF0E8C0CEF0E9C0CFF0A6EC1AF00001D8
:1038C800D8B002D0829A1200E2C0B8F0E3C0B9F0D2
:1038D800E4C0BAF0E5C0BBF0E6C080F0E7C081F014
:1038E800E8C082F0E9C083F06CEC26F080C0B4F048
:1038F80081C0B5F082C0B6F083C0B7F04EEC0CF0D2
:10390800B4C0C8F0B5C0C9F0B6C0CAF0B7C0CBF0F3
:103918005AEC1FF0C8C0EAF0C9C0EBF00001EBBFD9
:1039280008D00001EB512BE10B0E0001EA5DD8B085
:1039380026D00001EBBF08D00001EB510AE1050ECB
:103948000001EA5DD8B005D0000E0001EB6F050E4E
:103958001AD0000E0001C86F000EC96F1B0ECA6F87
:10396800430ECB6FE2C0CCF0E3C0CDF0E4C0CEF0A4
:10397800E5C0CFF0A6EC1AF00001D8B005D0000ED3
:103988000001EB6F0A0EEA6FEAC05EF05E500001BC
:10399800866F876B886B896B000EF0EC18F086C019
:1039A800D2F087C0D3F088C0D4F089C0D5F04EECEF
:1039B80020F01200096E0950D8A404AE1AD001C034
:1039C80005F002C006F003C007F004C008F0051EA9
:1039D800061E071E081E052A000E062207220822B8
:1039E80005C00BF006C00CF007C00DF008C00EF0C3
:1039F80008D001C00BF002C00CF003C00DF004C0E9
:103A08000EF00150021003100410D8A409D0000EC3
:103A1800016E000E026E000E036E000E046E1200A0
:103A2800960E0A6E06D00A2AD8900E320D320C3243
:103A38000B32000E0B14056E000E0C14066E000EF1
:103A48000D14076EFE0E0E14086E055006100710B2
:103A58000810D8B40DD0E7D70A2A010E0B26000E9D
:103A68000C220D220E22D8900E320D320C320B325F
:103A7800000E0B14056E000E0C14066E000E0D14CD
:103A8800076EFF0E0E14086E05500610071008107A
:103A9800D8B407D0E1D70A06D8900B360C360D36C5
:103AA8000E360DBE03D0020E0A60F5D70AB008D054
:103AB800FF0E0B16FF0E0C167F0E0D16FF0E0E16C0
:103AC800D8900A320AC005F0066A076A086A05C073
:103AD80008F0076A066A056A05500B1206500C12B0
:103AE80007500D1208500E120950D8A404AE01D088
:103AF8000E8E0BC001F00CC002F00DC003F00EC01A
:103B080004F012000001EE510001EF11D8A403D017
:103B1800524A532A29D00001EE050001EF11D8A41A
:103B280002D00A0E08D0020E0001EE190001EF11B2
:103B3800D8A404D03C0E5226000E15D0030E000166
:103B4800EE190001EF11D8A404D0580E5226020E27
:103B58000AD0040E0001EE190001EF11D8A404D018
:103B6800100E52260E0E5322555004E1050E545CD9
:103B7800D8A004D0000E536E000E526E52C086F0CC
:103B880053C087F00E0E0001896F100E886F11EC7C
:103B980021F086C054F087C055F054C080F055C05D
:103BA80081F00E0E0001836F100E826F88EC26F0F4
:103BB8000001801F0001811F0001804B812B5250A2
:103BC800000180250001866F53500001812100010A
:103BD800876F000E0001896F3C0E886F34EC24F06B
:103BE80086C056F087C057F054C080F055C081F0A9
:103BF8000E0E0001836F100E826F88EC26F080C0D5
:103C08008EF081C08FF056C080F057C081F0000E52
:103C18000001836F3C0E826F88EC26F00001805112
:103C280000018E270001815100018F2300018E1FA2
:103C38008F1F8E4B8F2B525000018E25586E53507C
:103C480000018F21596E12000001EE510001EF11A1
:103C5800D8A404D05206D8A0530629D00001EE05F6
:103C68000001EF11D8A402D0F60E08D0020E000110
:103C7800EE190001EF11D8A404D0C40E5226FF0E8D
:103C880015D0030E0001EE190001EF11D8A404D0DD
:103C9800A80E5226FD0E0AD0040E0001EE190001EE
:103CA800EF11D8A404D0F00E5226F10E532253AED1
:103CB80004D0000E536E000E526E52C086F053C0F0
:103CC80087F00E0E0001896F100E886F11EC21F03D
:103CD80086C054F087C055F054C080F055C081F0BC
:103CE8000E0E0001836F100E826F88EC26F0000123
:103CF800801F0001811F0001804B812B5250000161
:103D080080250001866F5350000181210001876FD3
:103D1800000E0001896F3C0E886F34EC24F086C0D9
:103D280056F087C057F054C080F055C081F00E0E91
:103D38000001836F100E826F88EC26F080C08EF031
:103D480081C08FF056C080F057C081F0000E00018E
:103D5800836F3C0E826F88EC26F0000180510001D1
:103D68008E270001815100018F2300018E1F8F1FB4
:103D78008E4B8F2B525000018E25586E53500001E8
:103D88008F21596E1200F29456C001F057C002F00C
:103D9800000E046E3C0E036E0EEC27F001C00EF010
:103DA80002C00FF054C001F055C002F00E0E046EB0
:103DB800100E036E0EEC27F001500E2602500F2253
:103DC80058500E24526E59500F20536E5004511003
:103DD800D8A417D052505310D8B413D05206D8A034
:103DE800530652505310D8A40CD0000E516E000E3A
:103DF800506E829A000E0101546F010E536F000E2F
:103E08005E6E52C001F053C002F00E0E046E100E2A
:103E1800036EB1EC23F001C054F002C055F054C059
:103E280001F055C002F00E0E046E100E036E0EEC7B
:103E380027F0011E021E014A022A52500124076E71
:103E480053500220086E000E0A6E3C0E096E6BEC91
:103E580025F007C056F008C057F054C001F055C00F
:103E680002F00E0E046E100E036E0EEC27F001C069
:103E78000EF002C00FF056C001F057C002F0000E5D
:103E8800046E3C0E036E0EEC27F001500E26025015
:103E98000F220E1E0F1E0E4A0F2A52500E24586E65
:103EA80053500F20596E3EEC27F012000001CA351E
:103EB800CB350001D16F0001D151D8A40AD0000E32
:103EC8000001C86F000EC96F000ECA6F000ECB6FDD
:103ED8001200C8C0CCF0C9C0CDF0CAC0CEF0CBC06B
:103EE800CFF0200E06D00001D890CF33CE33CD339B
:103EF800CC33E82EF8D70001CC510001D06F000177
:103F0800CA8FFF0E0001C817FF0EC917FF0ECA1788
:103F1800000ECB17960E0001D15F0001D1AF1AD069
:103F28000001D151800A970FD8B00AD0000E0001C5
:103F3800C86F000EC96F000ECA6F000ECB6F12005B
:103F48000001D890CB33CA33C933C8330001D13FFD
:103F5800F7D71BD01F0E0001D16512D0000E00014B
:103F6800C86F000EC96F000ECA6F000ECB6F12002B
:103F78000001D890C837C937CA37CB370001D107F5
:103F88000001D1510001D8A4F3D70001D05100019C
:103F9800D8B409D00001CB1FCA1FC91FC86D000EB5
:103FA800C923CA23CB23C8C0C8F0C9C0C9F0CAC036
:103FB800CAF0CBC0CBF01200173418341E6E1E5056
:103FC800D8A409D0000E156E000E166E000E176EDE
:103FD800000E186E120015C019F016C01AF017C09E
:103FE8001BF018C01CF0200E05D0D8901C321B32D4
:103FF8001A321932E82EF9D719501D6E178EFF0E96
:104008001516FF0E1616FF0E1716000E1816960E2A
:104018001E5E1EAE16D01E50800A970FD8B009D06B
:10402800000E156E000E166E000E176E000E186E3E
:104038001200D89018321732163215321E3EF9D7B0
:1040480015D01F0E1E640FD0000E156E000E166ED2
:10405800000E176E000E186E1200D8901536163620
:10406800173618361E061E50D8A4F7D71D50D8B4D8
:1040780008D0181E171E161E156C000E16221722C1
:10408800182215C015F016C016F017C017F018C082
:1040980018F01200000E0001926FC00E936F7F0E91
:1040A800946F440E956FD2C08EF0D3C08FF0D4C0F9
:1040B80090F0D5C091F0A2EC0EF08EC0A7F08FC0A2
:1040C800A8F090C0A9F091C0AAF0000E0001AB6F53
:1040D800000EAC6FC80EAD6F420EAE6FF5EC10F06F
:1040E800A7C0D6F0A8C0D7F0A9C0D8F0AAC0D9F008
:1040F800000E0001B86F000EB96F000EBA6F3F0EC8
:10410800BB6FD6C0B4F0D7C0B5F0D8C0B6F0D9C030
:10411800B7F04EEC0CF0B4C0C8F0B5C0C9F0B6C0EA
:10412800CAF0B7C0CBF05AEC1FF0C8C0DAF0C9C06B
:10413800DBF00001DBBF09D0040E0001DB5DD8A075
:1041480004D0030E0001DB6FDA69DAC080F0DBC04F
:1041580081F04FEC26F012000600E9CF42F0EACFDA
:1041680043F0E1CF44F0E2CF45F0D9CF46F0DACFC3
:1041780047F0F3CF48F0F4CF49F0F6CF4AF0F7CF45
:104188004BF0F8CF4CF0F5CF4DF0F2A403D0C7ECCC
:104198001EF025D0F2A209D0010E026EF40E016EB7
:1041A80021EC27F02AEC22F01AD0F0A00AD0F090E7
:1041B80052505310D8B413D0000E516E010E506EE9
:1041C8000ED0F0A207D0F092000E516E000E506E85
:1041D800829A05D0A1A203D06AEC23F0A1924DC027
:1041E800F5FF4CC0F8FF4BC0F7FF4AC0F6FF49C0C7
:1041F800F4FF48C0F3FF47C0DAFF46C0D9FF45C007
:10420800E2FF44C0E1FF43C0EAFF42C0E9FF41C00A
:10421800FBFF40C0FAFF60921100000E00018B6F97
:10422800000189AF08D00001886D891FD8B0892B9B
:10423800010E00018B6F000187AF08D00001866D69
:10424800871FD8B0872B010E00018B1B000E0001C1
:104258008D6F000E8C6F0001885100018911D8B450
:104268002CD0010E00018A6F06D00001D890883743
:10427800893700018A2B000189AFF7D70001D89050
:104288008C378D37000188510001865D0001895106
:1042980000018759D8A00AD0000188510001865F23
:1042A800000189510001875B00018C810001D890D1
:1042B8008933883300018A2FE1D700018B5100012F
:1042C800D8B405D000018C6D8D1FD8B08D2B8CC053
:1042D80086F08DC087F01200000E0001886F000E76
:1042E800896F000E8A6F000E8B6F000184510001E8
:1042F80085110001861100018711D8B442D0010E42
:1043080000018C6F08D00001D89084378537863734
:10431800873700018C2B000187AFF5D70001D890B3
:10432800883789378A378B37000184510001805DCF
:10433800000185510001815900018651000182590F
:104348000001875100018359D8A012D0000184517F
:104358000001805F000185510001815B00018651E9
:104368000001825B000187510001835B00018881A5
:104378000001D890873386338533843300018C2F2E
:10438800CDD788C080F089C081F08AC082F08BC008
:1043980083F01200000E056EC00E066E7F0E076ECB
:1043A800440E086E33C001F034C002F035C003F08B
:1043B80036C004F0D5EC12F001C01AF002C01BF0B0
:1043C80003C01CF004C01DF0000E1E6E000E1F6E10
:1043D800C80E206E420E216E96EC17F01AC037F008
:1043E8001BC038F01CC039F01DC03AF0000E056E35
:1043F800000E066E000E076E3F0E086E37C001F005
:1044080038C002F039C003F03AC004F07DEC14F073
:1044180001C015F002C016F003C017F004C018F070
:10442800E0EC1FF015C03BF016C03CF03CBE07D0D6
:10443800040E3C5CD8A003D0030E3C6E3B683BC026
:1044480001F03CC002F0BBEC26F01200F292000131
:10445800EE510001EF11D8A406D0000E0001EF6F55
:10446800010EEE6F12000001EE050001EF11D8A455
:1044780006D0000E0001EF6F020EEE6F1200020E62
:104488000001EE190001EF11D8A406D0000E0001BA
:10449800EF6F030EEE6F1200030E0001EE1900011C
:1044A800EF11D8A406D0000E0001EF6F040EEE6FD6
:1044B8001200040E0001EE190001EF11D8A406D075
:1044C800000E0001EF6F050EEE6F1200050E0001E1
:1044D800EE190001EF11D8A406D0000E0001EF6F0D
:1044E800060EEE6F1200060E0001EE190001EF1124
:1044F800D8A41200000E0001EF6F000EEE6F12003C
:10450800000E0001856F000181AF08D00001806DA9
:10451800811FD8B0812B010E0001856F000183AF88
:1045280005D00001826D831FD8B0832B0001825112
:1045380000018311D8B426D0010E0001846F06D083
:104548000001D890823783370001842B000183AFA4
:10455800F7D7000182510001805D000183510001FD
:104568008159D8A008D0000182510001805F000164
:1045780083510001815B0001D890833382330001AD
:10458800842FE7D7000185510001D8B405D0000178
:10459800806D811FD8B0812B80C080F081C081F0F0
:1045A80012000001915100019211000193110001C4
:1045B8009411D8B43AD0010E0001956F08D00001CB
:1045C800D89091379237933794370001952B000193
:1045D80094AFF5D70001915100018D5D0001925112
:1045E80000018E590001935100018F590001945127
:1045F80000019059D8A010D00001915100018D5FA1
:104608000001925100018E5B0001935100018F5B04
:10461800000194510001905B0001D89094339333CA
:10462800923391330001952FD5D78DC08DF08EC070
:104638008EF08FC08FF090C090F012000001CA6F0A
:104648000001CA51E3EC25F080C0C8F081C0C9F070
:10465800C8C080F0C9C081F0000E0001836F050E4C
:10466800826F88EC26F0000180C086F0000181C0CE
:1046780087F00001000E87BFFF0E886F896F010E5B
:10468800F0EC18F086C0A7F087C0A8F088C0A9F0A1
:1046980089C0AAF0000E0001AB6FC00EAC6F7F0E90
:1046A800AD6F440EAE6FF5EC10F0A7C0C4F0A8C013
:1046B800C5F0A9C0C6F0AAC0C7F0C4C0C0F0C5C044
:1046C800C1F0C6C0C2F0C7C0C3F012005BBE0BD0B9
:1046D8005B5004E10A0E5A5CD8A005D0000E5B6E50
:1046E800000E5A6E25D05E503D6E3E6A5A503D5CB3
:1046F8003E50800A3F6E5B50800A3F58D8A00ED0CB
:104708005E50D8B40BD0F086828A5A4A5B2A000ED3
:10471800026E280E016E21EC27F00AD0F096829ADC
:104728005A4A5B2A000E026E280E016E21EC27F011
:104738005E50016E026A036A046A000EDEEC1CF029
:1047480001C033F002C034F003C035F004C036F0C5
:10475800CEEC21F043EC27F01200000E066E04AEFA
:1047680006D0036C041ED8B0042A010E066E02AEF1
:1047780006D0016C021ED8B0022A010E061A000EDD
:10478800086E000E076E03500410D8B41CD0010E3A
:10479800056E04D0D89003360436052A04AEFAD73D
:1047A800D890073608360350015C04500258D8A048
:1047B80005D00350015E0450025A0780D890043295
:1047C8000332052EEDD70650D8B404D0076C081E66
:1047D800D8B0082A07C001F008C002F0120082828F
:1047E800070E0001816FD00E806FA3EC26F0829235
:1047F800070E0001816FD00E806FA3EC26F0828235
:10480800070E0001816FD00E806FA3EC26F0829214
:10481800070E0001816FD00E806FA3EC26F0828214
:10482800070E0001816FD00E806FA3EC26F08292F4
:10483800070E0001816FD00E806FA3EC26F08282F4
:10484800070E0001816FD00E806FA3EC26F08292D4
:10485800070E0001816FD00E806FA3EC26F01200C6
:10486800000E00018B6F000E8A6F00018851000155
:104878008911D8B42CD0010E00018C6F06D000012C
:10488800D8908837893700018C2B000189AFF7D77A
:104898000001D8908A378B37000188510001865D66
:1048A8000001895100018759D8A00AD00001885118
:1048B8000001865F000189510001875B00018A8140
:1048C8000001D8908933883300018C2FE1D78AC042
:1048D80086F08BC087F0120084948492000E000149
:1048E800816F190E806FA3EC26F0010E00018A6F0C
:1048F800030E00018A6501D00DD0030EE7EC26F007
:10490800000E0001816F060E806FA3EC26F00001F7
:104918008A2BEED7020EE7EC26F0000E00018A6F14
:10492800030E00018A6501D0120000018A51010DB1
:10493800F00EF324D96E000EF420DA6EDF50000179
:10494800886F000E40EC25F000018A2BE9D7060E8F
:104958000001EE190001EF11D8B481B610D0030E92
:104968000001EC190001ED11D8A406D0000E0001D9
:10497800ED6F030EEC6F03D00001EC4BED2B060E30
:104988000001EE190001EF11D8A4120081B812003D
:104998000001EC510001ED11D8A406D0000E000171
:1049A800ED6F000EEC6F12000001EC07D8A0ED07C8
:1049B8001200000EC26E0C0EC16E92689368800ED3
:1049C800946E000E956E000E966E000E836E000EAD
:1049D8009D6E310EB16E000EB36E000EB26EA192D6
:1049E800A082F28EF28C000EF16E000EF06EF18C49
:1049F800F18AF188F086F088D09EF288829AB18098
:104A0800000ED56ED580D582D594D58EF28AD58EF6
:104A180039EC27F0120000018D6F22D0010E000141
:104A2800886F000E40EC25F0000E0001816F020E29
:104A3800806FA3EC26F01200020E00018A6F010EAF
:104A480094EC25F01200100E0001886F000E40EC67
:104A580025F012008DC088F0010E40EC25F0120000
:104A680000018D51080AD8B4EED7020AD8B4E4D7A9
:104A7800060AD8B4D3D7EED70001896F000189B1EF
:104A880002D0849401D08484010E2DEC26F0010E0E
:104A98002DEC26F08492000188390F0BE7EC26F004
:104AA800000188510F0BE7EC26F000018951000145
:104AB800D8B405D0320E0400E82EFDD71200000E3F
:104AC8000001816F020E806FA3EC26F01200000E29
:104AD8000C6E000E0B6E09500A10D8B41CD0010ED3
:104AE8000D6E04D0D89009360A360D2A0AAEFAD7C8
:104AF800D8900B360C360950075C0A500858D8A0D5
:104B080005D00950075E0A50085A0B80D8900A321F
:104B180009320D2EEDD70BC007F00CC008F01200BB
:104B280000018B6F0AD0800E05D0C00E03D0900E06
:104B380001D0D00E00018C6F0ED000018A51010AFD
:104B4800D8B4F1D7030AD8B4F0D7010AD8B4EFD74C
:104B5800070AD8B4EED700018B0500018C270001A5
:104B68008C5180090001886F000E40EC25F012007E
:104B780001EE4FF00B0EEE6AE806FDE100EEE2F002
:104B88000E0EEE6AE806FDE100EE4EF0120EEE6A39
:104B9800E806FDE1900EF66E4E0EF76E000EF86E0A
:104BA80000EEF0F010EE04F00900F5CFEEFFE5504E
:104BB800E150FAE1609060920001CAEF09F000014B
:104BC800866F86C082F0000182478247C25000018A
:104BD8008219C30B8219C26EC282C2B2FED7C350F9
:104BE800C4CF82F00001836B82C083F00001826B26
:104BF800000182110001846F000183510001856F5B
:104C080084C080F085C081F01200000E0001CC1B2A
:104C1800000ECD1B000ECE1B800ECF1BC8C0B4F0FB
:104C2800C9C0B5F0CAC0B6F0CBC0B7F0CCC0B8F0B8
:104C3800CDC0B9F0CEC0BAF0CFC0BBF04EEC0CF08E
:104C4800B4C0C8F0B5C0C9F0B6C0CAF0B7C0CBF0A0
:104C580012000001836F000E0001856F000E846F43
:104C680004D004000001844B852B0001835100010E
:104C7800806F816B000184510001805D00018151CA
:104C8800800A0001826F00018551800A0001825963
:104C9800D8A01200E6D780C082F081C083F000015E
:104CA800D890833382330001D89083338233000154
:104CB8008251BE6E80C082F0030E0001821700018F
:104CC800823BBD5000018219CF0B8219BD6E1200C4
:104CD800000180510001811100018211000183113E
:104CE800D8B409D0000E0001801B000E811B000EF5
:104CF800821B800E831B80C080F081C081F082C03F
:104D080082F083C083F01200000180510001820309
:104D1800F3CF84F0F4CF85F00001805100018303C4
:104D2800F350000185270001815100018203F350EF
:104D38000001852784C080F085C081F01200000E34
:104D48000001836F000E826F07D0FA0E0400E82E70
:104D5800FDD70001824B832B000180510001825D49
:104D68000001815100018359D8B01200EED701C06B
:104D780003F002C004F0D89004320332D890043211
:104D880003320350BE6E01C003F0030E0316033A4C
:104D9800BD500318CF0B0318BD6E12000001826FBF
:104DA800000E0001816F3A0E0001826107D02F0EBC
:104DB8000001826503D0010E0001816F81C080F07F
:104DC8000001803112000001876F87C086F0000162
:104DD800863B8350000186190F0B8619836E010EDE
:104DE8002DEC26F08482040000F0849212000AD090
:104DF8008EC0D9FF8FC0DAFFDF500FEC25F000011D
:104E08008E4B8F2B8EC0D9FF8FC0DAFFDF50D8B4FE
:104E18001200EED701500302F3CF05F0F4CF06F0ED
:104E280001500402F350062602500302F3500626EE
:104E380005C001F006C002F01200000E046E000E5C
:104E4800036E06D0FA0E0400E82EFDD7034A042AA2
:104E58000150035C02500458D8B01200F3D7000E7A
:104E6800C26EC280890EC06E12000B0ED76EDC0EA9
:104E7800D66E12000B0ED76EDC0ED66E12000B0E1D
:0C4E8800B36EDC0EB26E1200080C0106C6
:10FEF200000000803FCDCCCC3D0AD7233C6F12835B
:10FF02003A17B7D138ACC52737BD37863595BFD636
:10FF12003377CC2B325F708930FFE6DB2E08E53C6D
:10FF22001E6042A20D0000803F000020410000C878
:10FF32004200007A4400401C460050C3470024742B
:10FF4200498096184B20BCBE4C286B6E4EF90215A8
:10FF520050EC78AD60CAF24971010000000A00005D
:10FF62000064000000E803000010270000A08601E2
:10FF72000040420F008096980000E1F50500CA9A01
:10FF82003B54696D653A20253032643A253032643B
:10FF92003A253032640053503A25342E31664320DC
:10FFA2000043543A25342E3166432000286E756C86
:10FFB2006C2900483A2564202000503A256420200C
:10FFC20000503A4120200031304D20200031305382
:10FFD2002020004D443A257300434B3A25730048D4
:10FFE200543A2573004852202000485420200048EB
:0DFFF200592020004F464600204F4E0000D1
:020000040020DA
:08000000FFFFFFFFFFFFFFFF00
:020000040030CA
:0E000000FF011F1FFF8385FF0FC00FE00F40A1
:00000001FF
